:1000000003308900831606309F0030308500870159
:10001000880104308900831286308400F001F101E8
:10002000F201F301F401F501F601F701F801F9011C
:10003000FA01013085008701880180010317003033
:100040008D0010308F000313031783168C170C14C8
:100050000000000083128F0A8D0F8F030C088301AC
:10006000860000008910000089140000880A870FAC
:100070008803081E242808308A0010297008FF0011
:100080007108F0007F08F10008308A00CF2E700858
:10009000FF007408F0007F08F40008308A00CA2EC0
:1000A0007008FF007608F0007F08F60008308A002C
:1000B000CA2E7008FF007808F0007F08F8000830AA
:1000C0008A00CA2E7008FF007A08F0007F08FA0044
:1000D00008308A00CA2E7008FF007308F0007F08FD
:1000E000F30008308A00CA2E7008FF007508F0007F
:1000F0007F08F50008308A00CA2E7008FF007708D4
:10010000F0007F08F70008308A00CA2E7008FF0050
:100110007908F0007F08F90008308A00CA2EED2324
:10012000F00008308A00C92E2124F00008308A002F
:10013000C92E5524F00008308A00C92E8924F00009
:1001400008308A00C92EF30AF40FF30373088800FD
:1001500074088700FF3080000910000006080914A9
:10016000FB00000000000000803A0319B9280000DD
:10017000BB287108FB007308FC00FB1BFC037B0819
:100180007407FD000318FC0A7C0888007D088700BE
:10019000FF3080000910000006080914FE0000006E
:1001A0000000000000000000000000007E08700653
:1001B000803AFF00F21BF00FF2137E08F0070318DD
:1001C000F2177006FF057213FF1B721708308A00C2
:1001D000CF2EF30AF40FF303730888007408870026
:1001E000FF3080000910000006080914FB00000021
:1001F00000000000803A0319FF280000012971085F
:10020000FB007508FC00FB1BFC037B087607FD0068
:100210000318FC0A7C0888007D088700FF308000F6
:100220000910000006080914FE000000000000008C
:1002300000000000000000007E087006803AFF0009
:10024000F21BF00FF2137E08F0070318F217700686
:10025000FF057213FF1B721708308A00CF2EF30AB6
:10026000F40FF3037308880074088700FF308000E0
:100270000910000006080914FB000000000000003F
:10028000803A03194529000047297108FB007708C7
:10029000FC00FB1BFC037B087807FD000318FC0A2D
:1002A0007C0888007D088700FF308000091000006E
:1002B00006080914FE000000000000000000000015
:1002C000000000007E087006803AFF00F21BF00F6D
:1002D000F2137E08F0070318F2177006FF05721379
:1002E000FF1B721708308A00CF2EF30AF40FF303B6
:1002F0007308880074088700FF3080000910000030
:1003000006080914FB00000000000000803A0319F1
:100310008B2900008D297108FB007908FC00FB1B6C
:10032000FC037B087A07FD000318FC0A7C088800A0
:100330007D088700FF3080000910000006080914BE
:10034000FE000000000000000000000000000000AF
:100350007E087006803AFF00F21BF00FF2137E0851
:10036000F0070318F2177006FF057213FF1B7217D0
:1003700008308A00CF2EED23FE097E087006803AF1
:10038000FF00F21BF00FF2137E08F0070318F217BC
:100390007006FF057213FF1B721708308A00CF2EFC
:1003A0002124FE097E087006803AFF00F21BF00F40
:1003B000F2137E08F0070318F2177006FF05721398
:1003C000FF1B721708308A00CF2E5524FE097E08C5
:1003D0007006803AFF00F21BF00FF2137E08F00760
:1003E0000318F2177006FF057213FF1B721708300F
:1003F0008A00CF2E8924FE097E087006803AFF000D
:10040000F21BF00FF2137E08F0070318F2177006C4
:10041000FF057213FF1B721708308A00CF2EED23E1
:10042000F00508308A00C92E2124F00508308A0022
:10043000C92E5524F00508308A00C92E8924F005FC
:1004400008308A00C92EED23F00408308A00C92E36
:100450002124F00408308A00C92E5524F004083005
:100460008A00C92E8924F00408308A00C92EED23A1
:10047000F00608308A00C92E2124F00608308A00D0
:10048000C92E5524F00608308A00C92E8924F006AA
:1004900008308A00C92EED23BD2408308A00C12E01
:1004A0002124BD2408308A00C12E5524BD240830E3
:1004B0008A00C12E8924BD2408308A00C12EDB2386
:1004C000F00008308A00D02EF30AF40FF30373080B
:1004D000880074088700FF308000091000000608BB
:1004E0000914FB00000000000000F00508308A003D
:1004F000CC2EDB23F00408308A00D02EDB23F0065C
:1005000008308A00D02E7108FF006630F107F21B18
:10051000F00AF20D7108F007F20C0630831CF002AD
:100520006030F21FF0027F08F10008308A001029C5
:10053000DB237B08FF006630FB07F21BF00AF20D9D
:100540007B08F007F20C0630831CF0026030F21FCB
:10055000F0027F08FB0008308A00C42EF30AF40F73
:10056000F3037308880074088700FF3080000910C7
:10057000000006080914FB00000000000000FB0951
:100580007B087006803AFF00F21BF00FF2137B0825
:10059000F0070318F2177006FF057213FF1B72179E
:1005A00008308A001029ED23013EF000182508309C
:1005B0008A00CE2E2124013EF000182508308A0042
:1005C000CE2E5524013EF000182508308A00CE2E8C
:1005D0008924013EF000182508308A00CE2EED2334
:1005E000FF3EF000182508308A00CE2E2124FF3E61
:1005F000F000182508308A00CE2E5524FF3EF0006A
:10060000182508308A00CE2E8924FF3EF0001825D8
:1006100008308A00CE2ED024182508308A001029F0
:10062000E224182508308A001029F42418250830FF
:100630008A0010290625182508308A001029F30A97
:10064000F40FF3037308880074088700FF308000FC
:100650000910000006080914FB000000000000005B
:10066000803A0319352B0000372B7108FB00750801
:10067000FC00FB1BFC037B087607FD000318FC0A4B
:10068000FB1B4A2B38257C08F5007D08F600083056
:100690008A00D02E7C08F5007D08F6003825000081
:1006A00008308A001029F30AF40FF3037308880056
:1006B00074088700FF308000091000000608091444
:1006C000FB00000000000000803A0319692B0000C5
:1006D0006B2B7108FB007708FC00FB1BFC037B08FD
:1006E0007807FD000318FC0AFB1B7E2B58257C08AD
:1006F000F7007D08F80008308A00D02E7C08F7004B
:100700007D08F8005825000008308A001029F30AF7
:10071000F40FF3037308880074088700FF3080002B
:100720000910000006080914FB000000000000008A
:10073000803A03199D2B00009F2B7108FB0079085C
:10074000FC00FB1BFC037B087A07FD000318FC0A76
:10075000FB1BB22B78257C08F9007D08FA000830D5
:100760008A00D02E7C08F9007D08FA007825000068
:1007700008308A001029DB23F0080319C72B00007A
:100780000000000000000000EC23F00BC12BFB0870
:100790000319D72B00000000000000000000E93022
:1007A000FF00EC23EC23FF0BD12BFB0BCC2BF00336
:1007B00008308A00C92EF30AF40FF3037308880087
:1007C00074088700FF308000091000000608091433
:1007D000FB000000000000000800F30AF40FF30320
:1007E0007308880074088700FF308000091000003B
:1007F00006080914FB00000000000000803A0319FD
:10080000032C0000052C7108FB007308FC00FB1B87
:10081000FC037B087407FD000318FC0A7C088800B1
:100820007D088700FF3080000910000006080914C9
:10083000FE000000000000000000000000000000BA
:100840000800F30AF40FF3037308880074088700A4
:10085000FF3080000910000006080914FB000000AA
:1008600000000000803A0319372C0000392C710871
:10087000FB007508FC00FB1BFC037B087607FD00F2
:100880000318FC0A7C0888007D088700FF30800080
:100890000910000006080914FE0000000000000016
:1008A00000000000000000000800F30AF40FF3034A
:1008B0007308880074088700FF308000091000006A
:1008C00006080914FB00000000000000803A03192C
:1008D0006B2C00006D2C7108FB007708FC00FB1BE3
:1008E000FC037B087807FD000318FC0A7C088800DD
:1008F0007D088700FF3080000910000006080914F9
:10090000FE000000000000000000000000000000E9
:100910000800F30AF40FF3037308880074088700D3
:10092000FF3080000910000006080914FB000000D9
:1009300000000000803A03199F2C0000A12C7108D0
:10094000FB007908FC00FB1BFC037B087A07FD0019
:100950000318FC0A7C0888007D088700FF308000AF
:100960000910000006080914FE0000000000000045
:10097000000000000000000008007E08FF00663054
:10098000FE07F21BF00AF20D7E08F007F20C0630AB
:10099000831CF0026030F21FF0027F08FE000800A6
:1009A000DB23803A0319D62C0000D82C7108FB00F9
:1009B0007308FC00FB1BFC037B087407FD00031895
:1009C000FC0A0800DB23803A0319E82C0000EA2C1B
:1009D0007108FB007508FC00FB1BFC037B08760715
:1009E000FD000318FC0A0800DB23803A0319FA2CE7
:1009F0000000FC2C7108FB007708FC00FB1BFC03CB
:100A00007B087807FD000318FC0A0800DB23803A06
:100A100003190C2D00000E2D7108FB007908FC0055
:100A2000FB1BFC037B087A07FD000318FC0A080087
:100A30007C08F0390319282D7C0888007D08870080
:100A40008001700886000000891000008914342D90
:100A50000000000000000000000000000000000096
:100A6000000000000000000000000000000008007E
:100A70007508F0390319482D750888007608870035
:100A80008001700886000000891000008914542D30
:100A90000000000000000000000000000000000056
:100AA000000000000000000000000000000008003E
:100AB0007708F0390319682D7708880078088700CF
:100AC0008001700886000000891000008914742DD0
:100AD0000000000000000000000000000000000016
:100AE00000000000000000000000000000000800FE
:100AF0007908F0390319882D790888007A08870069
:100B00008001700886000000891000008914942D6F
:100B100000000000000000000000000000000000D5
:100B200000000000000000000000000000000800BD
:10100000B52E73295529572959295B296B2965293B
:10101000CC2ED12ED12ED12ED12ED12ED12ED12EDD
:10102000D12ED12ED12ED12ED12ED12ED12ED12EC8
:10103000D12E4529D12ED12E4A2952294F29342982
:10104000D12ED12ED12ED12ED12ED12ED12ED12EA8
:10105000D12ED12ED12ED12ED12ED12ED12ED12E98
:101060007529772979297B297D297F298129832958
:10107000D12ED12ED12ED12EC22E852992299F2953
:101080003929D12ED12ED12ED12ED12ED12ED12E05
:10109000D12ED12ED12ED12ED12ED12ED12ED12E58
:1010A0004229D12ED12ED12ED12ED12ED12ED12EDC
:1010B0003C29D12ED12ED12ED12ED12ED12ED12ED2
:1010C0003F29D12ED12ED12ED12ED12ED12ED12EBF
:1010D000002DD12ED12ED12ED12ED12ED12ED12EEA
:1010E0000029D12ED12ED12ED12ED12ED12ED12EDE
:1010F0002029D12ED12ED12ED12ED12ED12ED12EAE
:10110000D12ED12ED12ED12ED12ED12ED12ED12EE7
:10111000D12ED12ED12ED12ED12ED12ED12E022DA7
:10112000AC29AF29B229B529B829BC29C029C429BD
:10113000C829CC29D029D429D829DC29E029E429B7
:10114000D12ED12ED12ED12ED12ED12ED12ED12EA7
:10115000E829EA29EC29EE29D12ED12ED12ED12E43
:10116000D12ED12ED12ED12ED12ED12ED12ED12E87
:10117000F029F229F429F629D12ED12ED12ED12E03
:10118000F829FA29FC29FE29042D002A032A062A17
:10119000062D082D0A2D0C2DD12E0E2D102D122DC1
:1011A000092A0B2A0D2A0F2A142D112A142A172A6C
:1011B0001A2A1C2A1E2A202A162D222A252A282AE3
:1011C0002B2A2D2A2F2A312A182D332A362A392A5A
:1011D0003C2A3E2A402A422A1A2D442A472A4A2AD1
:1011E0004D2A4F2A512A532A552A782AEB2A5E2B58
:1011F0001C2D1E2D202D222D242DD12B362C9B2C49
:1012000071087006803AFF00F21BF00FF2137108AC
:10121000F0070318F2177006FF057213FF1B721711
:10122000F30AF40FF3030000000073088800740849
:101230008700FF30800009100000060809148200B2
:101240007108FE00FE097E087006803AFF00F21B5E
:10125000F00FF2137E08F0070318F2177006FF056F
:101260007213FF1B72171029F20DF00CF20C000024
:1012700010297108F000CB2E7108F004CB2E7108F4
:10128000F006CB2E7108F005CB2E0310F10C0000F8
:10129000000010290310F00C000000001029700C51
:1012A000F00CD02E720DF00CD02EF213CF2EF217C0
:1012B000CF2EF211CA2EF21500000000000000002F
:1012C000000000000000000010297008C739F2007B
:1012D000013A8500CD2E7212F212050830397204DF
:1012E000F000F20010298A013E288A0147288A016D
:1012F00050288A0159288A0162288A016B288A01AC
:1013000074288A017D288A0186287508FF007308E1
:10131000F5007F08F3007608FF007408F6007F08E8
:10132000F400D02E7708FF007308F7007F08F30061
:101330007808FF007408F8007F08F400D02E7908C0
:10134000FF007308F9007F08F3007A08FF007408B3
:10135000FA007F08F400D02E00000000262D0000C7
:101360000000452D00000000642D00000000832DCA
:101370000000F01F262DA22D0000F01F452DA22DEC
:101380000000F01F642DA22D0000F01F832DA22D60
:10139000F0080319262DA22DF0080319452DA22DC2
:1013A000F0080319642DA22DF0080319832DA22D36
:1013B000F008031D262DA22DF008031D452DA22D9A
:1013C000F008031D642DA22DF008031D832DA22D0E
:1013D0008A01D32A8A01DA2A8A01E12A8A01E82AC3
:1013E0008A01EF2A8A01F62A8A01FD2A8A01042B42
:1013F0008A018F288A0194288A0199288A019E28C7
:10140000A625F000CD2EFA25F000CD2E4E26F000B8
:10141000CD2E8A010F2A8A01142A8A01192A8A01EB
:101420001E2AA625F005CD2EFA25F005CD2E4E2636
:10143000F005CD2E8A01232A8A01282A8A012D2A25
:101440008A01322AA625F004CD2EFA25F004CD2EED
:101450004E26F004CD2E8A01372A8A013C2A8A01C1
:10146000412A8A01462AA625F006CD2EFA25F00645
:10147000CD2E4E26F006CD2E8A014B2A8A01502A07
:101480008A01552A8A015A2AA625A226C52EFA259E
:10149000A226C52E4E26A226C52E8A01A3288A0181
:1014A000E9288A012F298A017529F30AF40FF30329
:1014B0007308880074088700FF308000091000005E
:1014C00006080914FB000000000000007B087006FD
:1014D000803AFF00F21BF00FF2137B08F0070318AD
:1014E000F2177006FF057213FF1B72170000102918
:1014F000F30AF40FF3037308880074088700FF30C1
:1015000080000910000006080914FB00000000001C
:101510000000803A03198E2A0000902A7108FB000F
:101520007508FC00FB1BFC037B087607FD00031815
:10153000FC0A0000FB1BC42A00007508880076081E
:101540008700FF3080000910000006080914FE0023
:1015500000000000000000000000000000007C0807
:10156000F5007D08F6007E087006803AFF00F21B49
:10157000F00FF2137E08F0070318F2177006FF054C
:101580007213FF1B721710297C08F5007D08F60006
:101590007508880076088700FF3080000910000079
:1015A00006080914FE000000000000000000000012
:1015B000000000007E087006803AFF00F21BF00F6A
:1015C000F2137E08F0070318F2177006FF05721376
:1015D000FF1B72171029F30AF40FF3037308880036
:1015E00074088700FF308000091000000608091405
:1015F000FB00000000000000803A0319012B0000EE
:10160000032B7108FB007708FC00FB1BFC037B0825
:101610007807FD000318FC0A0000FB1B372B0000B5
:101620007708880078088700FF30800009100000E4
:1016300006080914FE000000000000000000000081
:10164000000000007C08F7007D08F8007E087006A6
:10165000803AFF00F21BF00FF2137E08F007031828
:10166000F2177006FF057213FF1B721710297C0812
:10167000F7007D08F8007708880078088700FF30B9
:1016800080000910000006080914FE000000000098
:10169000000000000000000000007E087006803A94
:1016A000FF00F21BF00FF2137E08F0070318F21789
:1016B0007006FF057213FF1B72171029F30AF40F4F
:1016C000F3037308880074088700FF308000091056
:1016D000000006080914FB00000000000000803A2A
:1016E0000319742B0000762B7108FB007908FC00AD
:1016F000FB1BFC037B087A07FD000318FC0A0000B3
:10170000FB1BAA2B0000790888007A088700FF30AD
:1017100080000910000006080914FE000000000007
:10172000000000000000000000007C08F9007D08B7
:10173000FA007E087006803AFF00F21BF00FF213E9
:101740007E08F0070318F2177006FF057213FF1BDF
:10175000721710297C08F9007D08FA0079088800C2
:101760007A088700FF30800009100000060809147D
:10177000FE0000000000000000000000000000006B
:101780007E087006803AFF00F21BF00FF2137E080D
:10179000F0070318F2177006FF057213FF1B72178C
:1017A0001029F30AF40FF303730888007408870004
:1017B000FF3080000910000006080914FB0000003B
:1017C00000000000803A0319E72B0000E92B7108A4
:1017D000FB007508FC00FB1BFC037B087607FD0083
:1017E0000318FC0AFB1B0C2C750888007608870080
:1017F000FF3080000910000006080914FE000000F8
:101800000000000000000000000000007C08F5005F
:101810007D08F6007E08242C7C08F5007D08F60083
:101820007508880076088700FF30800009100000E6
:1018300006080914FE00000000000000000000007F
:101840000000000000000000FE097E087006803ADB
:10185000FF00F21BF00FF2137E08F0070318F217D7
:101860007006FF057213FF1B7217CF2EF30AF40FD9
:10187000F3037308880074088700FF3080000910A4
:10188000000006080914FB00000000000000803A78
:1018900003194C2C00004E2C7108FB007708FC004B
:1018A000FB1BFC037B087807FD000318FC0AFB1BED
:1018B000712C7708880078088700FF3080000910B5
:1018C000000006080914FE000000000000000000EF
:1018D0000000000000007C08F7007D08F8007E088A
:1018E000892C7C08F7007D08F800770888007808C4
:1018F0008700FF3080000910000006080914FE0070
:1019000000000000000000000000000000000000D7
:101910000000FE097E087006803AFF00F21BF00FFF
:10192000F2137E08F0070318F2177006FF05721312
:10193000FF1B7217CF2EF30AF40FF303730888000E
:1019400074088700FF3080000910000006080914A1
:10195000FB00000000000000803A0319B12C0000D9
:10196000B32C7108FB007908FC00FB1BFC037B080F
:101970007A07FD000318FC0AFB1BD62C79088800A7
:101980007A088700FF30800009100000060809145B
:10199000FE00000000000000000000000000000049
:1019A0007C08F9007D08FA007E08EE2C7C08F9001E
:1019B0007D08FA00790888007A088700FF308000E7
:1019C0000910000006080914FE00000000000000D5
:1019D000000000000000000000000000FE097E087A
:1019E0007006803AFF00F21BF00FF2137E08F0073A
:1019F0000318F2177006FF057213FF1B7217CF2E24
:101A00008A01832A8A01BB2B8A015F2A8A010B2B58
:101A10008A01102B8A01152B8A011A2B8A011F2B90
:101A20008A01532B8A01872B8A01642A8A01792A29
:101A30008A017E2A8A01982A8A01BB298A01D02933
:101A40008A01E5298A01FA298A01AE2AF30AF40FEC
:101A5000F3037308880074088700FF3080000910C2
:101A6000000006080914FB000000000000007308D5
:101A7000F300FB1BF3037B087407F4000318F30A5D
:101A800000000000000000001029F30AF40FF30327
:101A90007308880074088700FF3080000910000078
:101AA00006080914FB000000000000007508F300A0
:101AB000FB1BF3037B087607F4000318F30A00000E
:101AC0000000000000001029F30AF40FF30373086C
:101AD000880074088700FF308000091000000608A5
:101AE0000914FB000000000000007708F300FB1B56
:101AF000F3037B087807F4000318F30A00000000E2
:101B0000000000001029F30AF40FF30373088800A3
:101B100074088700FF3080000910000006080914CF
:101B2000FB000000000000007908F300FB1BF3033A
:101B30007B087A07F4000318F30A00000000000095
:101B400000001029F30AF40FF303C22EF30AF40F76
:101B5000F3037308880074088700FF3080000910C1
:101B6000000006080914FB00000000000000803A95
:101B70000319BC2D0000BE2D7108FB007508FC0088
:101B8000FB1BFC037B087607FD000318FC0AFB1B0C
:101B9000E12D7508880076088700FF308000091065
:101BA000000006080914FE0000000000000000000C
:101BB0000000000000007C08F5007D08F6007E08AB
:101BC000F92D7C08F5007D08F60075088800760878
:101BD0008700FF3080000910000006080914FE008D
:101BE00000000000000000000000000000000000F5
:101BF00000000800F30AF40FF30373088800740868
:101C00008700FF3080000910000006080914FB005F
:101C1000000000000000803A0319102E0000122E70
:101C20007108FB007708FC00FB1BFC037B087807AE
:101C3000FD000318FC0AFB1B352E77088800780886
:101C40008700FF3080000910000006080914FE001C
:101C500000000000000000000000000000007C0800
:101C6000F7007D08F8007E084D2E7C08F7007D08FF
:101C7000F8007708880078088700FF308000091096
:101C8000000006080914FE0000000000000000002B
:101C9000000000000000000000000800F30AF40F3C
:101CA000F3037308880074088700FF308000091070
:101CB000000006080914FB00000000000000803A44
:101CC0000319642E0000662E7108FB007908FC00E1
:101CD000FB1BFC037B087A07FD000318FC0AFB1BB7
:101CE000892E790888007A088700FF308000091063
:101CF000000006080914FE000000000000000000BB
:101D00000000000000007C08F9007D08FA007E0851
:101D1000A12E7C08F9007D08FA00790888007A086D
:101D20008700FF3080000910000006080914FE003B
:101D300000000000000000000000000000000000A3
:101D4000000008007E08FF006630FE07F21BF00A64
:101D5000F20D7E08F007F20C0630831CF0026030B2
:101D6000F21FF0027F08FE000800851509080439FB
:101D70000319B52E09080439031DBA2E851110293F
:101D8000A12600000000000000000000000000008C
:101D90000000000000000000000000000000000043
:061DA00010298A010E2843
:102000000800C40010003600C4001C003200C400E8
:1020100011003500C40020003100C400FF00C900D9
:102020000000C9000100C4000D00C900FF00C40089
:102030000200CA00F6003100C40020003500B900DB
:1020400002000100C1008000E4000D0098000200C1
:10205000BA00F600C40020003500C400FF00C9002B
:102060000000C9000100C4000D00C900FF003500D8
:102070000200F4001000E400800098000400E40076
:1020800080009000E900C4000000CA00F400CA000B
:10209000F500C4005800CA00FB00C4000C00CA00D0
:1020A000FA00C4000000CA00EA000100C4000000F9
:1020B000CA008000AA00EA000100C40034006000E9
:1020C0009C00F400C4005000CA00FD00C4007A0067
:1020D000CA00FF00C4006A00CA00FC00C400A600D9
:1020E000CA00F900C4008A00CA00FE00C200FB005A
:1020F0003300C200FA003700C70001000100C7002A
:1021000001003300CA00FB004000D4000F00DC00D7
:1021100000003700CA00FA004000D400F000E400DC
:10212000200098002F00E400A00098000700E400C1
:10213000C0009800E1003F009000D800C200F90004
:10214000E400D6009C000400C4000A009000600077
:10215000E400D6003300CA00EA00C40010003700D3
:102160000100C200FB00CF000100C200FA00CF0056
:102170000100C200EA003300CA00F9004000370045
:102180009000BA00CA00E700C5000100E40020008A
:102190009800FA00C500FF00C200FA003700CA002C
:1021A000EC00C200FB003300CA00ED00C7000100D4
:1021B0000100BA00E7004000D4007F00E500010004
:1021C0009C00070040009400F100900095009000F2
:1021D0008D00C200E7000100C5008000C200ED00D4
:1021E0003300C200EC0037009000CA00C4001000A9
:1021F0003700C200F9003300C700FF000100C7002C
:10220000FF003300CA00F900400037009000B8001A
:1022100090004100C200FC00E4007A0098001C001D
:10222000AA00FC00AA00FC003300C4001000370024
:10223000C200F40098000A003500CB00FF00350012
:102240003100CB00FE0031009000C100C400FF004F
:10225000CB00FF009000BB00C4000A0090001B00F0
:10226000C5000100E40020009800FA00E4002D0001
:1022700098000400E40037009C0001003F00C40007
:10228000040090000800C200FC00E4006A009C000A
:102290000400C400090090004000BA00FC00BA002D
:1022A000FC003300C40010003700C300010094009C
:1022B0000600C4000000CA00F40090008800350049
:1022C000C30000003100C4000100CA00F400900007
:1022D000F400C200F20094000400C4000800900062
:1022E0001C00C4000100CA00F4003F00C4000F003D
:1022F0003700C400B9003300C5000100E40022002B
:102300009800DB00E4002F0098000500E4000D00B9
:102310003F009000EB00C400070090003500C400AF
:1023200010003700AA00FD00AA00FD003300C40021
:102330000A00CB00FE00C4000000CB00FF00C40078
:102340000500CA00E700C400FF00CB000500C30081
:10235000FD0094001300C4002D00CB000400C40055
:1023600000000300FB00FC00CB00FC00C4000000E8
:10237000FB00FD00CB00FD0090009F00C40020008A
:10238000CB0004009000990090005700AA00FD00C7
:10239000AA00FD003100C40010003500AA00E700CB
:1023A0000100C1000100DC003000C9008000C10054
:1023B000FD00D900FC0098000A00C4000F00CA000C
:1023C000FA00C4003300CA00FB009000DB00C40028
:1023D0000F003700C400B9003300C200F5009C00B4
:1023E0000600C10004003F00C200E7000100C50074
:1023F0008000C10000003F00C500FF009400FB000A
:10240000C4005000CA00FD00C200F5009C00BA00E4
:10241000C40020003F009000B500C4000F0037004A
:10242000C400B9003300C4000D003F00C4000A001E
:102430003F009000A700C4000500CA00EB00C200E6
:10244000EB00CA00EA00C4000F003700C400B90066
:102450003300C4000D003F00C4000A003F00C40068
:102460000F003500C4003B003100BA00EB009800BB
:102470000600C50001009400FC009000F600C500B5
:1024800001003F00C100FF009400F900C200EA0013
:10249000E4000E0098000D00C4000F003500C400D9
:1024A0003B003100C50001003F00C100FF00940067
:1024B000F900C200F40098004D00C40020003F0065
:1024C000C40041003F00C40054003F00C40010009D
:1024D0003700AA00FD00AA00FD003300C200F7008B
:1024E000CB00FF00C200F800CB00FE00C4003100AA
:1024F000CA00FB00C4000E00CA00FA009000990058
:10250000C4000E0090009900C200F4009800220060
:10251000C1000000D40080009C001C000600D40014
:1025200020009800ED00C100FF00E4000D009C00B9
:102530000800C5000100CA00F700C5000200CA007B
:10254000F800C4000C00CA00FA00C4008600CA00EB
:10255000FB003F00C4000000CA00F400C4005000AB
:10256000CA00FD00C4001C00CA00FB00C4000C002F
:10257000CA00FA00C400A600CA00F9009000BE001C
:10258000AA00F400C200E9003500C200E8003100F2
:10259000C4006A00CA00FC00C4008A00CA00FE0031
:1025A000C4007A00CA00FF003F009000A70090001E
:1025B000A900C1000000E400800094001800C400DD
:1025C00010003700AA00FD00AA00FD003300C5007E
:1025D0000100CB00FF00C5000100CB00FE00C500DC
:1025E0000100C4000100CA00F5009000DE00C40034
:1025F0000000CA00F500C40002003700C4008300D8
:1026000033003F009000D1009000D100C4000F00C3
:102610003700C400B90033000600D4002000980041
:10262000E600C5000100E4000D0098000500E4008C
:102630000D003F009000F000C4000D003F00C400FA
:102640000A003F000200C4004B00CA00FB00C400A7
:102650000C00CA00FA009000AC00C4001000370063
:10266000BA00FD00BA00FD0033000200C300FE0006
:10267000F3000000CB00FE00C300FF00F3000100E8
:10268000CB00FF009000BE00C40010003700BA006D
:10269000FD00BA00FD0033000300C300FE00FB0094
:1026A0000000CB00FE00C300FF00FB000100CB00D8
:1026B000FF009000A700C40010003700C200FD001A
:1026C00033000300C4000000FB00FE00CB00FE004E
:1026D000C4000000FB00FF00CB00FF009000D20010
:1026E00090009200C40010003700C200FD003300CB
:1026F000C300FF00E300FD00CA00EA00C300FF00C2
:1027000094000D000300C4000000FB00FE00CB009D
:10271000FE00C4000000FB00FF00CB00FF00C30070
:10272000FD0094000D000300C4000000FB00FC004D
:10273000CB00FC00C4000000FB00FD00CB00FD004E
:10274000C4000000CB000000CB000100CB00020061
:10275000CB000300C4001000CA00EB00C300FF0060
:102760001F00CB00FF00C300FE001F00CB00FE00D7
:102770000600940011000200C3000200F300FC00F8
:10278000CB000200C3000300F300FD00CB000300F8
:10279000900002009000A4000200C30003001F008C
:1027A000CB000300C30002001F00CB000200C300E7
:1027B00001001F00CB000100C30000001F00CB0080
:1027C0000000BA00EB009C00C900900002009000DD
:1027D0008500C200EA0094000D000300C400000060
:1027E000FB000000CB000000C4000000FB00010063
:1027F000CB000100C3000000CB00FC00C3000100BF
:10280000CB00FD00BA00FD00BA00FD009000DF0023
:10281000C40010003700C200FD003300C300FF00F9
:10282000DB00FE009C000400C4000D009000B2001C
:10283000C300FD00E300FF00CA00EA00C300FD0082
:1028400094001100C40000000300FB00FC00CB005A
:102850000300C4000000FB00FD00CB00020090005C
:102860000A009000B400C300FD00CB000200C300CA
:10287000FC00CB000300C300FF0094000D00C40067
:1028800000000300FB00FE00CB00FE00C4000000BF
:10289000FB00FF00CB00FF00C4000000CB000100E4
:1028A000CB000000CA00EB00CB00FD00CB00FC0019
:1028B0000200C300FC00F300FC00CB00FC00C300DE
:1028C000FD00F300FD00CB00FD000200C30003008B
:1028D000F3000300CB000300C3000200F30002007A
:1028E000CB000200C3000100F3000100CB00010097
:1028F000C3000000F3000000CB0000000300C30091
:102900000100FB00FE00CB000100C3000000FB0043
:10291000FF00CB000000940011000200C300010082
:10292000F300FE00CB000100C3000000F300FF0035
:10293000CB0000009000080090009300C300FC0052
:10294000DC000100CB00FC00AA00EB00E40010005A
:102950009C00AE00C200EA0094000D00C40000001C
:102960000300FB00FC00CB00FC00C4000000FB00E7
:10297000FD00CB00FD00BA00FD00BA00FD00900094
:10298000DB00C40010003700C200FD003300C700A8
:10299000FD000100C3000100CA00800002004000E9
:1029A000F40001000100C3000200CA0080003300EF
:1029B000CA00FD00C40000003700C40075003300E9
:1029C0003F00C5000100E40020009800FA00C100AB
:1029D000FF000300FC005B00940005000300FC0006
:1029E000E60094001200C500FF00C200FB003300A7
:1029F000C200FA003700C3000000CA00FA00C3009A
:102A00000100CA00FB009000D5000100C1000000D9
:102A10000300FC005B00940005000300FC00E600DE
:102A20009400E100C40010003700AA00FD0033004C
:102A3000020040007000CB00FF00C4000200020052
:102A4000F200FB00CA00FB00C4000000F200FA0024
:102A5000CA00FA009000AE00C40010003700AA00BF
:102A6000FD003300C300FE000100C2008000CB0067
:102A7000FE0002004000F40001000100C2008000DE
:102A8000CB00FF0090009600C400010090001200EF
:102A9000C400020090000E00C400030090000A0071
:102AA000C400040090000600C4000500900002006D
:102AB000C4000600CA00EB00C40010003700BA00D2
:102AC000FD00BA00FD0033000300C300FE00FB0060
:102AD0000000CA00EF00C300FF00FB000100CA00B5
:102AE000EE00E300FF000100C300FF00E30001006F
:102AF0005000E200EE00CA00EA00C200EE00DA0078
:102B0000EF0098000200C4008000E4008000010093
:102B1000BA00EB009C000500400090002B009000E4
:102B2000B100BA00EB009C0005004000E40080000A
:102B300090002000BA00EB009C000400C200EA00F4
:102B400090001800BA00EB009C0005004000DA007D
:102B5000EA0090000F00BA00EB009C000700400064
:102B6000DA00EA00E400800090000400C200EA00FD
:102B7000E400800094000400C40001009000020002
:102B8000C4000000CB00FE00C4000000CB00FF002A
:102B9000C40000003700C400F50033003F0090007F
:102BA000BE00C200EF00DA00EE00980002009000C4
:102BB000B600C5000100E4000D009C00FA00C4004E
:102BC00002003700C400830033003F009000A700DC
:102BD000C400010090000600C40002009000020042
:102BE000C4000300CA00EB00C40010003700BA00A4
:102BF000FD00BA00FD003300BA00EB009C000E009F
:102C0000C3000100D300FF00CB00FF00C3000000A1
:102C1000D300FE00CB00FE009000D800BA00EB000D
:102C20009C000E00C3000100DB00FF00CB00FF0092
:102C3000C3000000DB00FE00CB00FE009000C600D9
:102C4000C7000100E400FF00CB00FF00C700010047
:102C5000E400FF00CB00FF003300CA00FD0090003D
:102C6000B500C200F1003100CA00F100C200F0005E
:102C70003500CA00F0003F00C200F40098000100D7
:102C80003F00C4000300CA00EB00C400020037008C
:102C9000C4001E0033003F00AA00FD00AA00FD0092
:102CA0003300C40010003700C4000000CB00FF0058
:102CB000CB00FE00CA00EB00C5000100E4002000CC
:102CC0009800FA00C500FF00C10000000300FC00EE
:102CD0003A00940009000300FC00F6009400130081
:102CE000900032009000BB000300FC000D00940037
:102CF0002B000300FC00FA00940002009000240066
:102D00000200F4000A000100C4000400CA00EA0046
:102D1000CA00EB00C300FE000200F300FE00CB007F
:102D2000FE00C300FF00F300FF00CB00FF00BA006D
:102D3000EA009C00EF00C300FE005800CB00FE003C
:102D4000C50001009000C000C200EB009C0087009D
:102D5000C400050090009700C5000100E4002000B9
:102D60009800FA00C500FF000300FC003A00940040
:102D700005000300FC00F60094002100C200FB00E7
:102D80003300C200FA003700C3000000CA00FA0096
:102D9000C3000100CA00FB009000A400C4000200B0
:102DA0000200F200FB00CA00FB00C4000000F200B9
:102DB000FA00CA00FA00900095009000CB000100D4
:102DC000C40010003700AA00FD00AA00FD00330077
:102DD000C4000000CB00FF004000CB00FE00C50097
:102DE0000100C10000000300FC003A009400D6007E
:102DF0000300FC00F600940002009000CF000100E8
:102E0000C300FF00CB000100C300FE00CB000000A8
:102E1000C4000200CA00EA000200C300FE00F30082
:102E2000FE00CB00FE00C300FF00F300FF00CB005C
:102E3000FF00D40080009C003400BA00EA009C002F
:102E4000EB000200C300FE00F3000000CB00FE0018
:102E5000C300FF00F3000100CB00FF00D40080009E
:102E60009C001F000200C300FE00F300FE00CB0028
:102E7000FE00C300FF00F300FF00CB00FF00D40002
:102E800080009C000E0002004000F300FE00CB001A
:102E9000FE00C4000000F300FF00CB00FF00940020
:102EA0009E00C40006009000880090008400C400CA
:102EB00010003500C400D6003100C4000000CA0074
:102EC000E700C4000F003700C400B9003300C2009F
:102ED000F40098000800C4003F003F00C400200038
:102EE0003F0090000300C4003E003F00C4000F00FC
:102EF0003700C400760033003F00C400B90033003F
:102F000040009800F300E4000A009800EF00400041
:102F1000E4000D00980050004000E4005F009800BD
:102F200041004000E4000800980036004000E40042
:102F3000150098000F004000E40003009C001A00F8
:102F4000C4005E003F00C40043003F00C4000E0008
:102F50009000A900C4005E003F00C40055003F007F
:102F6000C4000D003F00C4000A003F0090009F0015
:102F700090009B004000CD000100AA00E700E400A3
:102F800048009C00B300C4000D00010040003F0059
:102F90009000120090008700C40020003F00C40091
:102FA00008003F00C200E7009800A000BA00E70058
:102FB000C500FF0090009A004000CD000100C40051
:102FC0000A003F00C40010003500C400D6003100E4
:102FD0009000CE00C40010003700C200FD00330096
:102FE000C300FF0035000100C300FE003100CA002D
:102FF000EF00C1000000CB00FE00C4000000CB00C9
:10300000FF00C200EF003100400035009000B0002A
:10301000C40010003700C200FD003300C700FE00EE
:103020000100C700FF00CA00EA00C700FF0033002C
:10303000CA00FD00C200EA0037004000CB000000DB
:103040009000C6009000A600C40010003700C20027
:10305000FD003300C3000100CA00F700C3000000F8
:10306000CA00F800C200F1003300C200F0003700CF
:10307000C4000400CA00E700C7000100E4000D001E
:1030800098000400AA00E7009000F600C200E700E4
:10309000E40004009C000200CA00E700C200E70050
:1030A0000100C200F20094000600D4007F00CA00B4
:1030B000F20090001800C500030040000200F40078
:1030C000FC000100C5000100E4000D0098000B00A9
:1030D00040000200F400FF0001009000F3009000A7
:1030E000AF009000AF004000DA00E7009800F70062
:1030F000C4007A00CA00FF00C4006A00CA00FC00D5
:10310000C4008A00CA00FE004000980060009400DD
:103110001000C1000000C9008000C500010094003B
:10312000F800C10000009400F400C9008000900085
:103130004E00C100FE00CA00EA00C400FF00C90042
:10314000FE00C4005000C900FF00C500010094004B
:10315000FC00C10000009400F8003500CA00EE0039
:1031600035003100CA00EF003100C200EF0002005C
:103170007000C4000000F200EE00E200EE00D40097
:10318000F00098000300C40000000100C400FF002C
:10319000C9008000C500FF009400FA00C1000100D2
:1031A000E400500098000400C10000009000F0000E
:1031B000C200EA00C9000000C4000D00C9000100FF
:1031C00040009C000400C400020090008A00C2007D
:1031D000E70098008400C200F1003100C200F00056
:1031E0003500C200F3003300C200F2003700C20015
:1031F000F700CF000100C200F800CF000100C200BC
:10320000E700CF000100C5000100CF000100E4008D
:103210000D009C00F8009000DC00C40000003700A6
:10322000C400750033003F009000CF00BA00FD00DD
:10323000BA00FD003300C40010003700C3000000D6
:10324000CA00EF00C3000100CA00EE009000E500D4
:10325000C200FF0001004000E4007A009C0004006E
:10326000C4000F009000E000C200EF00DA00EE00A2
:1032700098000600BA00FF00BA00FF009000CD00E1
:1032800040003300C40010003700C300FF003500C9
:10329000C300FE0031009000C000C200EF00D40067
:1032A000F70007009000B9009000BE00C4001000B5
:1032B0003700AA00FD00AA00FD0033000600CB0085
:1032C000FE00C4000000CB00FF009000EB00C20035
:1032D000EE003700C200EF003300C700FF003F00E0
:1032E000C40010003600C4001C0032009000DA0058
:1032F000C200FF00E4008A009C000400C4000A0031
:103300009000D200AA00FF00AA00FF003300C40012
:10331000100037003500CB00FF0035003100CB0036
:10332000FE0031009000BE00C200E9003700C2007C
:10333000E8003300C3000000940002009000070082
:10334000C30002000100C70080009000F300C70026
:103350000200AA00FD00AA00FD0033000100C40025
:1033600010003700CB00FF004000CB00FE009000B3
:10337000D900C5000100E4000D009C00FA003F00E8
:10338000C200FD003300C40010003700C30003007A
:10339000CB00FE00C3000200CB00FF009000C20083
:1033A0009000AE00C4000800CA00EB00C200E500B7
:1033B0000100C200E400CA00E900C200E50002000A
:1033C00070000100C200E4000200F200E900CA003F
:1033D000E400BA00EB009C00F00040000200F400A2
:1033E00007000100C200E4000200F40007001E0014
:1033F000CA00E400AA00E600980003004000CA00EA
:10340000E500C200FD003300C40010003700C40016
:103410000100CB000000C4000000CB000100C3008D
:10342000FE00CB000200C300FF00CB000300C3007E
:10343000FC00CB000400C300FD00CB000500C2006F
:10344000E400CB00FE00C200E500E400FF00D40071
:103450007F00CB00FF00C70006003300CA00FD005C
:1034600090009C0090009C00AA00FD00AA00FD00B6
:103470003300C40010003700C4000000CB00FF0080
:10348000C4000100CB00FE009000EA00C200FE0074
:10349000E400A6009C000400C4000A009000E200C2
:1034A000E400A6003100CA00F100C400100035009D
:1034B000CA00F000C200FD003300C4001000370055
:1034C000C300F900CD000100C300FC00CD000100E5
:1034D000C300FD00CD000100C300FE00CD000100CF
:1034E000C300FF00CD000100C200F100CD000100CB
:1034F000C200F000CD0001003500C200F100310033
:10350000CA00FE00C700FC003300CA00FD009000A6
:10351000A700C200FE00E4008A009C000400C40072
:103520000B009000BB00E4008A003100CA00F100EB
:10353000C40010003500CA00F000C200FD003300D6
:10354000C40010003700C700FF00E100F900980038
:103550000400C4000C009000A100E100F90001008B
:10356000C20080000200F100FC00CA008000CB0015
:103570000000C6000100C2008000F100FD00CA008A
:103580008000CB000100C600FF00C100FA00CB00A4
:103590000200C100FB00CB000300C100FD0094004D
:1035A0001000C4000400CA00EB00C7000100E400E2
:1035B000FF00CB00FF00BA00EB009C00F60090007B
:1035C0000200C70004003300CA00FD00C200F10081
:1035D0003100C200F000350090009900C200EF00F9
:1035E00098000800C200FE000200F400F900CA00C2
:1035F000FE003F00C200FE003300C4001000370090
:10360000C300FF003500C300FE0031009000E4005D
:103610009000A100C200EE003500C200EF003100B2
:10362000C4000F003700C400B9003300C50001001A
:10363000E4000D009800D000E4000D003F000600FB
:10364000D40020009C00F2009000C600C200EE00F2
:103650003700C200EF003300C5000100CF000100B9
:10366000E4000D009C00F8009000B600C200EF00DE
:103670003300C200EE003700C5000100E400220064
:1036800098000E00E4002F009C000400C400070016
:103690009000BE00E4000D00CF0001009000EC009F
:1036A000C4000D00CB0000009000DE00C200FD0051
:1036B0003300C40010003700C700FF003500C7000A
:1036C000FF003100C700FF000100C700FF0033000A
:1036D000CA00FD0040003700C5000100CF00010016
:1036E000E4000D009800C0000600D40020009C00FB
:1036F000F3009000B900AA00FD00AA00FD0033000D
:10370000C40010003700C200F600CB00FE00C40069
:103710000000CB00FF009000A700C200EF00D40023
:1037200007009C000200C4000100CA00F6003F0030
:10373000C200F600E40001009C000900C400110072
:10374000CA00E900C4002000CA00E8003F00E4000D
:1037500001000100C4000400CA00EB0040000200A8
:1037600070000100BA00EB009C00F8004000CA00A5
:10377000E900C4000200CA00E8003F00C200E900FE
:103780003500C200E80031003F0035000100400074
:10379000350040001C001C001C001C00CA00F60084
:1037A0003F00C200E9003500C200E8003100C4005B
:1037B0000D00C900FF00C400FF00C9000000C900DF
:1037C00001003F00C200E9003500C200E8003100FE
:1037D000C1000000E400FF00940012000300C100DB
:1037E0000100FA00EF00C1000000FA00EE009400B2
:1037F0000700C10002000100C50080009000E80041
:103800003100CA00F30031003500CA00F200350073
:10381000C200EF00E10001009C000700C200EE00C2
:10382000E10000009C0001003F00C200F200DC004B
:103830008000CA00F2003F0002000C0007005600A2
:103840002C0025008D004C001E000600AB000C0073
:1038500035000B00970006003000090015000B0032
:10386000E100080023004C001E002C0051004C0019
:1038700049005300D4000B0097000600AB000C0079
:103880004700090015000B00E1004C0049000B0047
:10389000BD000200D8008F002F00030005004C007F
:1038A0001C002C00600052005500CE0001002F00CB
:1038B0000B0097000B00BD000200BF000200830058
:1038C0002C006D0043004C0045004100D200010077
:1038D0002F0000005000020083002C0086004E00E4
:1038E0004500D7000600AB000C0078004C007A00C1
:1038F0000A00330001002F00090015000B008C00A6
:103900000B0097000B00D000020083002C008B00FE
:103910004C004500D4000400E0000C009A002E008A
:103920002F00BD008E0035000400C00001002F00F4
:10393000020083002C00AA00C0008E00AC002E0004
:103940002F00BD008E0035000800070001002F0089
:10395000020083002C00BC004900C6008E00350028
:103960002C00B600540048004500CE0009001500A8
:103970000500D0004C0086002C00D10055004E0000
:1039800054004900CC0006003B008E0035000100C9
:103990002F0009001500090027000B00C4000200D9
:1039A00083002C00DD004400CF0006003B00010036
:1039B0002F0009007700020083002D00000047005F
:1039C000CF002C00EB005400CF008E00350001002A
:1039D0002F004C00F6002E002F0053005500C200AF
:1039E0008E00350001002F00010009000B00970038
:1039F000090015000B00E1000100680002008300CF
:103A00002D00100052004500540055005200CE0019
:103A100001002F00010042000B00C40002008300DF
:103A20002D002A004E0045005800D40006003B003F
:103A30000400E0000E002F0001002F000A008800A3
:103A40008E005F00090015000A00ED000B00C400A5
:103A5000020083002D00540046004F00D2000600F3
:103A60003B000400E0000E002F002E002F00BD00E0
:103A70008E0035002E002F005400CF008E00350040
:103A80002D004A00530054004500D0008E00350040
:103A90004D004C000A00330001002F000A004500D1
:103AA0000400C000020083002D0067005300540092
:103AB0004100D4002E002F00BD008E00350009000B
:103AC000150009004C0001002F00020083002D00AA
:103AD0007E00500041004700C5002E002F00BD00B1
:103AE0008E00350001002F00090015000B008C002E
:103AF0000B0097000B00BD00020083002D009E000C
:103B0000A4008E00AC002E002F00BD002D008F0001
:103B1000A200090015000B0035004D009A002E0090
:103B20002F00A4008E00AC00060030000B005500F2
:103B30000600300001002F00020083002D00D1009C
:103B40005000D2002D00A70049004E00D4002D00E7
:103B5000AE00A200010075004D00C1002D00BD00A7
:103B6000A4008E00AC0006003000090015000B0018
:103B70000900060030004D00C1008E0035008F00A6
:103B80002F002D00C600AC004D00A7002D00CB007B
:103B9000BB004D00CD0002000C0001002F00020010
:103BA00083002E00090049004E0050005500D4004B
:103BB00006003B000400E0000D00F60006003000A7
:103BC000070056008E0035000400C00006003000DB
:103BD0002E000500AC000400E0000E002F000600DF
:103BE00030002E002F00AC004D00E2002E002F0010
:103BF000A4008E00AC00060030000700560009004B
:103C000015000B0025000600300001002F00020007
:103C100083002E00120045004E00C40001002F005A
:103C200002007F002E0026004C0049004E00CB0011
:103C30008E00350001002F0006003000090015003D
:103C40000900660006003000020083002E002F00ED
:103C500052004500CD000900B800020083000200B8
:103C60001A008F002F000200A9008E0061002E00B4
:103C70003E00BD008E006100050043002E00530091
:103C8000BC002E004800BD008E00610005004F0002
:103C90002E004F00BE008E006100050047008E0020
:103CA000610005004B002E008B00BE002E005D0061
:103CB000BD008E006100050057008E006100050008
:103CC00053002E006A00AD008E008D0003005A00E4
:103CD0004E006F002E006D00AB008E008D002E0098
:103CE0007800AB008E008D0003002C004E006F00AA
:103CF0002E008100AD008E008D00030043004E00B9
:103D00006F002E008B004F00D2008E008D0005004A
:103D1000EB004E006F000000F5008E00AC002E009E
:103D20009800AA008E00AC00030071004E008F00C6
:103D30002E00A100AF008E00AC00040007004E0072
:103D40008F002E008B0041004E00C4008E00AC009E
:103D50000500E7004E008F000400E0000E00B400F4
:103D600005002B000000F5000600AB000E00BA00B5
:103D70000000F5002E00C100A30006004B0000006B
:103D8000F5002E00CB00A8008E0035002E002F007D
:103D9000A9000000F5002E00D400C0008E00AC0089
:103DA0000700E9000000F5002E00DF004E004F0084
:103DB000D4008E00AC000500EF000000F5002E00DE
:103DC000E900530054004100D400090055000000F0
:103DD000F5002E00F40054004F00D0000B009700B7
:103DE000090093000000F5002F0001004D004F0076
:103DF000C4008F002000040007000900BF0000007D
:103E0000F5002F00160052004E00C4008F00200065
:103E10000900D1000300430003002C000400070048
:103E20000900BF0003002C000000F5002E002F0049
:103E3000500041004700C5000B007A000000F5006B
:103E40002E002F00A8008E0035002E002F00AC00A1
:103E50008E0035002E002F00A9000000F50006009E
:103E6000300001008E00040007000100C5000600BC
:103E700030000000F50020004500520052004F00C5
:103E8000D200410052004500C100530054004D00D3
:103E9000D400430048004100D20053004E005400BB
:103EA000D800560041004C00D50045004E004400AB
:103EB000A2004E004F004700CF00520054005200B5
:103EC000CE004E0045005300D4004E00450058007F
:103ED000D40046004F00D200440049005600B00014
:103EE00042005200CB0055004E005400CC00C400EC
:103EF0000800CA00EB000600D40020009C00FB0074
:103F0000C40043008F0000000600D40020009C0085
:103F1000F2000600DC0001000700C4007A008F00F8
:103F200000000600D400200098000200C400010038
:103F3000CA00EA001F0001001D0001000600DC00AD
:103F40000100E200EA000700BA00EB009C00E50077
:103F5000C400AA008F0000000600D400FE00070085
:103F60008F0002004000D4007F00010040003F00AD
:103F70009000BD00D4007F000100C40031008F001C
:103F800001000600DC0001000700C4000900CA00AF
:103F9000E800C40082008F000000BA00E80098002A
:103FA00010004000D4000100CA00E90001001C001C
:103FB00001000600DC000100E200E90007009000BB
:103FC000E8000600D400FE0007003F009000D20089
:103FD00020007000610074006300680065006400E8
:103FE00020006200790020005000680069006C0029
:103FF0005F004700200020009000BA009000BA0047
:02400E00323D41
:00000001FF
